:020000040800F2
:10000000F04D0020A1010008C3090008BD09000847
:10001000C109000891020008271400080000000030
:1000200000000000000000000000000001010008C6
:10003000B70300080000000041010008B10F0008EC
:10004000BB010008BB010008BB010008BB010008A0
:10005000BB010008BB01000845080008BB010008FF
:10006000BB010008BB010008BB010008BB01000880
:10007000BB010008BB010008BB010008BB01000870
:10008000BB010008BB010008BB010008BB01000860
:10009000BB010008BB010008BB010008BB01000850
:1000A000BB010008BB010008BB010008BB01000840
:1000B00005100008BB010008BB010008BB010008D7
:1000C000BB010008BB010008BB010008BB01000820
:1000D000BB010008A3120008A7120008BB0100081A
:1000E000BB010008BB010008BB010008DFF80CD011
:1000F00000F08EF800480047CD320008F04D002097
:100100001F4B19680868B0E8F00F80F30988BFF347
:100110006F8F4FF0000080F311884EF00D0E704786
:100120000000000005480068006880F3088862B697
:10013000BFF34F8FBFF36F8F00DF00BF08ED00E00C
:10014000EFF30980BFF36F8F0D4B1A6820E9F00FB2
:10015000106008B54FF0BF0080F3118804F0E4FA96
:100160004FF0000080F31188BDE808401968086866
:10017000B0E8F00F80F30988BFF36F8F704700BFBE
:1001800020010020EFF311804FF0BF0181F31188AF
:10019000704780F311887047EFF3058070470000C7
:1001A0000648804706480047FEE7FEE7FEE7FEE711
:1001B000FEE7FEE7FEE7FEE7FEE7FEE7B50F000815
:1001C000ED00000840EA01039B0703D009E008C9DD
:1001D000121F08C0042AFAD203E011F8013B00F80C
:1001E000013B521EF9D27047D2B201E000F8012B58
:1001F000491EFBD270470022F6E710B504460846B8
:10020000114602462046FFF7EFFF204610BD0000D2
:10021000064C074D06E0E06840F0010394E8070053
:1002200098471034AC42F6D3FFF764FFB05600088D
:10023000D056000870B501EB020410F8015B15F010
:10024000070301D110F8013B2A1106D110F8012B48
:1002500003E010F8016B01F8016B5B1EF9D12B076D
:1002600005D40023521E0FD401F8013BFAE710F821
:10027000013B02F10202A1EB030303E013F8015B6F
:1002800001F8015B521EF9D5A142D6D3002070BD02
:10029000FEE700007CB50121152000F0EDFB0820F1
:1002A000ADF8000003248DF802401020144D8DF8A5
:1002B00003006946284600F02BFB0821284600F081
:1002C00079FB0125ADF800508DF8024004208DF82F
:1002D000030069460B4800F01BFB0021084600F0B4
:1002E00003FB06208DF804000F208DF80500002088
:1002F0008DF806008DF8075001A800F063FB7CBD67
:10030000001001400008014010B5012000F09CFAE7
:100310000248016821F00101016010BD00040140A4
:100320000821014800F046BB0010014008210148A7
:1003300000F042BB0010014070477CB5054668469E
:1003400000F0CAFA00260124B5B1012000F07CFAC1
:100350002946062000F070F88DF8046008208DF81A
:10036000050000948DF80640684600F073FA0120FD
:1003700000F06AFA00207CBD00948DF806606846A3
:1003800000F068FA062000F073F8F0E70248016810
:1003900041F001010160704700040140C2680A6039
:1003A00082684A6042880A8182884A81C2888A813A
:1003B0000069086170477047F8B504464FF4407013
:1003C00000F02EFB194E0020012140F22555B442C9
:1003D00007D125228DF800208DF802008DF801103C
:1003E00009E0134EB44215D126228DF800208DF875
:1003F0000200022017E08DF80310684600F0E2FAD0
:100400002946304600F054FF01222946304600F0CC
:1004100085FFF8BD074EB442FBD127228DF800209E
:100420008DF8020003208DF80100E4E70038014058
:100430000044004000480040024A126802EB80007D
:100440000164704708ED00E010B572B6054A064930
:100450000648FFF7B7FE05494FF0005000F0EAFAF2
:1004600062B610BDEC000000000000080000002093
:1004700003490968034A01EB8000026470470000E9
:1004800008ED00E0BF09000810B500F003F80020F7
:1004900010BD000010B5054C0021204600F015FCF1
:1004A0000021204600F0E0FB012010BD003001409B
:1004B00010B586B0684600F012FC0121042000F05F
:1004C000DBFA0121082000F0D7FAA020ADF81400D3
:1004D00003208DF816001820224C8DF8170005A96E
:1004E000204600F015FA4020ADF8140004208DF8E5
:1004F000170005A9204600F00BFA1021ADF81410E2
:100500008DF8171005A9204600F002FA0121080312
:1005100000F0B2FA0121880300F096FA0020ADF84D
:1005200000004FF48271ADF802106115ADF80800BB
:10053000ADF80A100821ADF80C10ADF80400ADF8C4
:100540000600ADF80E000720074CADF81000694614
:10055000204600F09EFB0121204600F085FB06B0FE
:10056000012010BD000801400030014010B50024FA
:10057000FFF79EFF012800D10124204610BD000096
:100580002DE9F0410D461746012803D04FF0FF300A
:10059000BDE8F081DFF848801021404600F00AFAFB
:1005A0003C46104E14E00221304600F067FB002864
:1005B000F9D0FF21304600F06AFB0121304600F0FF
:1005C0005DFB0028F9D0304600F05FFB05F8010B19
:1005D000641EE8D21021404600F0EEF93846D7E715
:1005E00000080140003001402DE9F0410D4617465A
:1005F000012803D04FF0FF30BDE8F081DFF84880DC
:100600001021404600F0D6F93C46104E13E002217E
:10061000304600F033FB0028F9D02978304600F04E
:1006200036FB0121304600F029FB0028F9D0304686
:1006300000F02BFB6D1C641EE9D21021404600F037
:10064000BBF93846D8E700000008014000300140FF
:1006500070B5154C40F225552946204600F03FFE66
:1006600018B12946204600F023FE40F226652946AF
:10067000204600F034FE18B12946204600F018FE4E
:1006800040F227752946204600F029FE00280AD0AE
:100690002946204600F00CFE29462046BDE8704061
:1006A000002200F03BBE70BD0038014001490860E7
:1006B0007047000074010020F8B5044601210D20A8
:1006C00000F0DAF9214A03201821214D17150426DC
:1006D00094420DD15215ADF800208DF802008DF82E
:1006E00003106946284600F013F9ADF800700FE0DA
:1006F000184A944213D1ADF800608DF802008DF8CD
:1007000003106946284600F003F90820ADF8000000
:100710008DF803606946284600F0FAF8F8BD0E4AE5
:100720009442FBD1ADF800708DF802000B4C8DF8AF
:1007300003106946204600F0EBF8E014ADF8000025
:100740008DF8036069462046E6E700000038014066
:10075000000801400044004000480040000C0140F7
:100760002DE9FF4104462148DDF828800D46164654
:100770001F46844204D10121880300F07DF90CE07A
:100780001B48844202D10121480404E019488442F4
:1007900003D10121880400F057F9684600F038FEC3
:1007A0000020ADF80C00ADF808800C20ADF8046016
:1007B000ADF80A000095ADF806700021204600F063
:1007C0007DFD2046FFF778FF2046FFF7F5FD6946DF
:1007D000204600F0BBFD0121204600F06FFD4021C6
:1007E000204600F062FDBDE8FF81000000380140B6
:1007F000004400400048004038B50121082000F0C6
:100800003BF90120ADF8000010208DF80300032013
:100810000B4C8DF802006946204600F079F8022062
:10082000ADF800006946204600F072F8012120462C
:1008300000F0C2F80221204600F0BEF838BD0000EA
:10084000000C01407047000001490860704700003B
:100850001404014030B51F4A8179036899B31146E9
:100860000C6824EA03040C604B68046823EA040360
:100870004B60047904EB02031C68056844EA050434
:100880001C608B68046823EA04038B60CB680468EF
:1008900023EA0403CB604379A1F58061102B05D0D6
:1008A00099180A68006802430A6030BD01F5816149
:1008B0000A68036842EA03020A604A68006842EA7A
:1008C00000024A6030BDFFE7007910440168994397
:1008D0000160F7E7000401400021016001710C2272
:1008E000427181717047000010B58A0721F003043E
:1008F0000649130F21440F228C689A4094438C6060
:100900008A68984002438A6010BD000000000140E0
:100910002DE9F041CB78002503F00F02DB0601D56D
:100920008B781A430B884FF00F0813F0FF0F4FF02E
:10093000010C1CD0D0F800400E880CFA05F31E40C4
:100940009E4210D1AF0008FA07F624EA060602FA22
:1009500007F43443CE78282E02D0482E02D002E08D
:10096000436100E003616D1C082DE5D304600B8832
:10097000FF2B1DD94468002505F108060CFA06F383
:100980000E881E409E420FD1AF0008FA07F624EAF7
:10099000060602FA07F43443CE78282E00D14361CC
:1009A000CE78482E00D103616D1C082DE4D344603D
:1009B000BDE8F0814161704701617047FEE7FEE7E5
:1009C000FEE7704770B50F22C57803784FF0E0213D
:1009D0000124E5B1D1F80C5D0B4405F4E065C5F5E3
:1009E000E0652E0AC6F10405F2404678AE408578EF
:1009F000154035432A0183F80024007800F01F02D7
:100A00009440400901EB8000C0F8004170BD03F044
:100A10001F008440580901EB8000C0F8804170BD80
:100A20000249084302490860704700000000FA05C7
:100A30000CED00E0024A114001430248016070479A
:100A400080FFFF1F08ED00E0044A0029D16901D0B2
:100A5000014300E08143D161704700000010024073
:100A6000044A0029116901D0014300E0814311616A
:100A70007047000000100240044A0029916901D02B
:100A8000014300E081439161704700000010024083
:100A9000044A0029D16801D0014300E08143D160BC
:100AA00070470000001002400C48016841F001014D
:100AB000016041680A4A114041600168094A1140D9
:100AC0000160016821F480210160416821F4FE0188
:100AD00041604FF41F018160704700000010024028
:100AE0000000FFF8FFFFF6FE224910B54A6812F039
:100AF0000C03214A03D0042B01D0082B26D002601E
:100B00004A681E4B02F0F00212099C5C0268E24047
:100B100042604C6804F4E064240A1C5D22FA04F488
:100B200084604C6804F460544FEAD4241B5D22FABC
:100B300003F2C2604968114B01F440414FEA913120
:100B40001B1F595CB2FBF1F1016110BD4A684B6893
:100B500002F470124FF0020413F4803F04EB92424F
:100B600002D04B689B0301D5054B00E0024B5A4372
:100B7000C5E700000010024000127A0004010020C6
:100B800000093D000246002053090949012B0BD002
:100B9000022B0BD0D1F8241002F01F020123934046
:100BA0000B4200D0012070470968F5E7096AF3E7B6
:100BB000001002400248406800F00C00704700003E
:100BC00000100240034A516821F0F00101435160D6
:100BD00070470000001002400B490A6822F480327E
:100BE0000A600A6822F480220A60B0F5803F07D0CC
:100BF000B0F5802F03D1086840F4A020086070474A
:100C0000086840F48030F9E700100240034A516858
:100C100021F4E06101435160704700000010024080
:100C200003494A6822F4605242EAC00048607047B3
:100C3000001002400149086670470000000042426F
:100C4000034A5368084323F47C13184350607047E9
:100C500000100240034A516821F003010143516032
:100C600070470000001002400029018802D041F0C6
:100C7000400101E021F04001018070470246002060
:100C800012890A4200D00120704780897047818113
:100C9000704730B502884C8802F441530A88CD88E9
:100CA00022438C882C4322430C8922434C892243C3
:100CB0008C892243CC8922431A430280828B22F4FE
:100CC00000628283098A018230BD0029818802D0B6
:100CD00041F0040101E021F004018180704700210E
:100CE000018041808180C180018141818181C181F8
:100CF000072101827047000022480021026842F467
:100D0000803202604FF4A063026801F1010112F425
:100D1000003F01D19942F7D10168890330D51A49C2
:100D20000A6842F010020A600A6822F003020A60B0
:100D30000A6842F002020A6041684160416841600D
:100D4000416841F480614160416821F47C11416057
:100D5000416841F4E8114160016841F0807101602F
:100D600001688901FCD5416821F0030141604168B7
:100D700041F0020141604168C1F381010229FAD1C9
:100D800070470000001002400020024001A001F066
:100D90002DBC0000205B47454E4552414C20455636
:100DA000454E545D200A0D0001A001F01FBC00005B
:100DB000205B48545450204556454E545D20556E96
:100DC0006578706563746564206576656E74200A65
:100DD0000D00000010B5040002D109A001F006FCCE
:100DE0002068012804D0BDE810400FA001F0FEBB30
:100DF0001648016841F004010160A168816010BDDE
:100E0000205B4E4554415050204556454E545D2080
:100E10004E554C4C20506F696E746572204572724D
:100E20006F72200A0D000000205B4E455441505067
:100E3000204556454E545D20556E65787065637447
:100E40006564206576656E74200A0D00140100202B
:100E500070B5064D0400286840F00040286002D1BB
:100E600003A001F0C3FB6068686070BD140100203E
:100E7000205B50494E47205245504F52545D204E02
:100E8000554C4C20506F696E746572204572726FBC
:100E9000720D0A0010B5040002D10FA001F0A6FBEC
:100EA00021681648012903D0022906D014A00DE0BC
:100EB000016841F00101016010BD016821F00501E8
:100EC000016094F84D00C82804D016A0BDE8104079
:100ED00001F08CBB20A0F9E7205B574C414E204528
:100EE00056454E545D204E554C4C20506F696E74E3
:100EF0006572204572726F72200A0D001401002085
:100F0000205B574C414E204556454E545D20556E52
:100F10006578706563746564206576656E74200A13
:100F20000D00000020446576696365206469736381
:100F30006F6E6E65637465642066726F6D20746891
:100F400065204150206F6E20616E204552524F52F5
:100F50002E2E2121200A0D0020446576696365202C
:100F6000646973636F6E6E65637465642066726F27
:100F70006D20746865204150206F6E206170706C28
:100F800069636174696F6E2773207265717565732B
:100F900074200A0D000000004FF0E02104280869C9
:100FA00003D020F004000861704740F00400FAE725
:100FB00003F0B4BE0F4810B5016841F001010160B3
:100FC00041680D4A1140416001680C4A11400160BE
:100FD000016821F480210160416821F4FE01416033
:100FE0004FF41F018160FFF787FE05494FF0006055
:100FF000086010BD001002400000FFF8FFFFF6FE81
:1010000008ED00E002F034BB0029018802D041F075
:10101000800101E021F0800101807047C943018215
:101020007047C943018270470029018802D041F00E
:10103000010101E021F00101018070474B4910B529
:10104000884202D10121C41486E0B0F1804F09D05A
:10105000474988420DD101210220FFF701FD0021FF
:10106000022064E001210846FFF7FAFC002101207C
:101070005DE04049884206D101210420FFF7F0FCE1
:101080000021042053E03C49884206D10121082078
:10109000FFF7E6FC0021082049E03849884206D1E4
:1010A00001211020FFF7DCFC002110203FE0344933
:1010B000884206D101212020FFF7D2FC0021202008
:1010C00035E03049884202D10121441444E02E49E0
:1010D000884202D10121CC043EE02C49884202D151
:1010E00001210C0538E02A49884202D101214C0532
:1010F00032E02849884206D101214020FFF7B0FCA8
:101100000021402013E02449884206D1012180209B
:10111000FFF7A6FC0021802009E0204988420AD17F
:10112000841501212046FFF79BFC00212046BDE8E5
:101130001040FFF795BC1A49884202D101210C04E6
:101140000AE01849884202D101214C0404E0164902
:1011500088420AD101218C042046FFF799FC2046E1
:10116000BDE810400021FFF793BC10BD002C0140EA
:101170000004004000080040000C00400010004047
:101180000014004000340140004C01400050014078
:101190000054014000180040001C004000200040A6
:1011A000004001400044014000480140038A002201
:1011B00080890B4200EA010001D000B101221046F3
:1011C0007047002A828901D00A4300E08A43828165
:1011D0007047018921F007010181704781847047C0
:1011E00030B502881B4B1C4C98420DD0A0420BD04E
:1011F000B0F1804F08D0194DA84205D0184DA84233
:1012000002D0184DA84203D122F070054A882A4323
:10121000154DA84206D0154DA84203D022F44075C2
:10122000CA882A4302808A8882850A880285984271
:101230000AD0A04208D00E4A904205D00D4A9042F2
:1012400002D00D4A904201D1097A018601218182A2
:1012500030BD0000002C014000340140000400407B
:1012600000080040000C0040001000400014004046
:101270000040014000440140004801404FF6FF712A
:10128000818000210180C180418001727047002966
:10129000018802D041F0040101E021F00401018045
:1012A0007047FFF7D5B902F09BB9C9430180704779
:1012B0000A0A01219140C9430180704700298189B0
:1012C00002D041F4005101E021F4005181817047C6
:1012D0000246002012880A4200D00120704770B5F3
:1012E00001F01F0601220025C1F3421302FA06F4A1
:1012F000012B0FD0022B0FD0838A4FEA11210088D7
:10130000234202FA01F200EA020001D000B10125F5
:10131000284670BD8389F0E7038AEEE710B5C1F374
:10132000421301F01F040121A140012B07D0022B21
:1013300007D01430002A026805D00A4304E00C30BC
:10134000F8E71030F6E78A43026010BD30B5044676
:10135000008A85B00D464CF6FF710840E9880143CC
:101360002182A1894EF6F3100140A8882A891043F2
:101370006A890A431043A081A08A4FF6FF410840C2
:10138000A9890143A1826846FFF7AEFB1B4884424E
:1013900001D1039800E00298A1890904002900EB1B
:1013A000C00101EB0010296802DA4FEA410101E0B7
:1013B0004FEA8101B0FBF1F06422B0FBF2F14FEA99
:1013C00001114FEA11136FF018056B4300EB830016
:1013D000A3891D044FF0320306D503EBC000B0FB18
:1013E000F2F000F0070005E003EB0010B0FBF2F0B4
:1013F00000F00F000843208105B030BD00380140E7
:101400008088C0F308007047C1F3080181807047ED
:101410004FF41651016000218180C18001810C22AE
:10142000428181817047FEE72DE9F043C548A5B0B0
:101430004468D4F8B0C0D4F8A800BCF1000F41D083
:10144000018840F6B303012502260427A1F6B30262
:101450004FF0030899427ED01ADC40F63207A1F61D
:1014600032026B46B9423ED008DC111D74D001290E
:1014700073D0022929D0032923D14DE003F127019C
:1014800089464E2A51D04F2A7CD0802A19D1ECE0CF
:1014900040F67273A2F672719A4270D00ADCA2F51D
:1014A000E0625B3A6CD0012A6BD0A2F50062143A7C
:1014B00007D144E107297ED008297DD0B1F5007F0E
:1014C0007BD0E04725B0BDE8F08300F10805072098
:1014D0000090286A0990A88CADF8280095F826207D
:1014E0002946181D21E100F1080508200090286A0E
:1014F0000990A88CADF8280095F826202946181DDB
:10150000FEF760FE15F8260F8DF82A0068788DF832
:101510002B0010E18847D5E7092100910089ADF83B
:1015200004001846D4F8B010F4E700F108064C2186
:101530001F46181DFEF75FFE009530788DF80400F9
:10154000D6F84300CDF84700B6F84700ADF84B0099
:1015500096F8222003E0ACE0B0E0D4E012E006F11F
:1015600023014846FEF72EFE7278B11CB81DFEF727
:1015700029FE70788DF8050096F822002EE030E004
:101580005EE064E000F108054C211F46181DFEF7DF
:1015900032FE009628788DF80400D5F84300CDF887
:1015A0004700B5F84700ADF84B0095F8222005F14B
:1015B0002301484602E026E032E01AE0FEF702FE90
:1015C0006A78A91CB81DFEF7FDFD68788DF8050046
:1015D00095F849008DF84D0095F822008DF8260009
:1015E000A9E0149581681591C1681691006917905A
:1015F00022E000F10C0114960EC98069CDE91612A3
:10160000CDE9183018E0CDF8508050F8081F15913A
:1016100041681691816817918089ADF860000BE0F0
:10162000149750F8081F15914189ADF85E10416874
:1016300016910089ADF85C0014A8D4F8B01069E7E1
:10164000229550F8081F23914068249009E02296C3
:10165000017B8DF89010417B8DF89110C089ADF819
:10166000920022A8D4F8B01054E700F10805CDF894
:1016700000808068019068680290A86A0B9003F16E
:101680000C0020210646FEF7B6FD05F108013046A4
:101690006A68FEF797FDA86AA0B30CA82021064649
:1016A000FEF7A9FD05F12C013046AA6AFEF78AFD76
:1016B00041E000970089ADF804003CE000F108012A
:1016C0000D464C211E46181DFEF795FD0520009085
:1016D000286A0990A88CADF8280095F8262029469C
:1016E000301DFEF76FFD95F826008DF82A0095F85D
:1016F000482005F128010BA8FEF764FD95F8480085
:101700008DF84C0017E000F108054C211E46181D0D
:10171000FEF771FD06200090286A0990A88CADF8AC
:10172000280095F826202946301DFEF74BFD95F838
:1017300026008DF82A006846D4F8B010EAE601F0D9
:10174000CBF8BFE66C0200201CB50021ADF800000C
:101750008DF80210042001918DF803000A4601A9BA
:10176000684600F049F800B1FEE7BDF904001CBD71
:101770001C49002243054968C1F8B0202FD46328D2
:101780000BD0A0F580530A3B04D05B1E02D0B3F50A
:10179000007306D181F8B4207047032081F8B400AB
:1017A0007047022281F8B42010F4F04F0FD0C0F33C
:1017B000C322012A0DD0022AF2D0032AF0D1A0F5CB
:1017C000C0522E3A01D0921E07D1074802E00748C6
:1017D00000E00748C1F8B00070470648FAE701206A
:1017E000DCE700006C020020B51F0008811800082B
:1017F000950E0008D50D00082DE9F041174C05465F
:101800000F4660689046FF2344223321001D00F0FC
:101810008DFE00B1FEE76068012600F19000867041
:1018200000F10C00A0E8A00100F044FB050006D088
:1018300060683321001D00F096FE60B1FEE720785D
:1018400030B9267042F210700100A0F10100FBD106
:1018500000F094FA05462846BDE8F0816C020020AD
:10186000064B30B45B68002403F190039C7003F1D5
:101870000C0307C330BC00F01DBB00006C0200204D
:101880001CB50188082904D0732906D0782908D00E
:10189000FEE7BDE81C4000F0DDBFBDE81C4001F0E4
:1018A0008DB80121009101898DF804100089000A8A
:1018B0008DF805006846FFF769FA1CBD70B500F0A9
:1018C00077F8154D00216868913000F04CFE00B1AA
:1018D000FEE768680021001D00F045FE00B1FEE74C
:1018E00068680021903000F03EFE00B1FEE7002461
:1018F000696804EB440001EB80001030002100F027
:1019000032FE00B1FEE7641CE4B20A2CF0D300F012
:10191000B3FB0020686070BD6C02002070B5234CE2
:10192000214DB82128466560FEF765FC112105F1BF
:10193000910000F018FE00B1FEE76068012311225B
:101940002221913000F0F2FD60683321001D00F08B
:101950000AFE00B1FEE760683321903000F003FE1C
:1019600000B1FEE700F094FB5FF00005606805EB56
:10197000450600EB86001030112100F0F4FD00B1A7
:10198000FEE76068012300EB86001030112222215F
:1019900000F0CCFD6D1CEDB20A2DE7D300F01EF86F
:1019A0000020207070BD0000684800206C020020FC
:1019B00010B5094C0021206880F89310943000F095
:1019C000D2FD00B1FEE720680021953000F0CBFD8C
:1019D000002800D0FEE710BD7002002010B50A4CB0
:1019E0000121206880F893103321943000F0BBFD72
:1019F00000B1FEE720681121953000F0B4FD002809
:101A000000D0FEE710BD0000700200202DE9FF416C
:101A100002A9684600F0CCFB00B1FEE7BDF800006B
:101A2000D44C082814D060689DF8041000F8931F67
:101A30009DF8072082719DF80620C271A0F19300E5
:101A4000012905D92221953000F08DFD00B1FEE776
:101A5000BDF80000FFF78CFE606890F8B410002914
:101A600067D0012978D0022977D1D0F8A81001B128
:101A7000FEE7C149C0F8A8100098086001984860C6
:101A8000BDF80210481E20F00300A02801D880B243
:101A900000E0A02004290CD005B260682A46D0F8E6
:101AA000A81000680831FEF76BFD00B2854200D037
:101AB000FEE7BDF80200401E20F00300A02810D968
:101AC000A03885B20BE06068042203A90068FEF725
:101AD00057FD00B2042800D0FEE72D1FADB2002D47
:101AE000F1D16068FF2344223321903000F01EFDC5
:101AF00000B1FEE7BDF80000A0F58051033906D023
:101B0000B1F5007103D0A0F58051063906D16168A6
:101B1000D1F8A810897A01F00F0100E0082100F047
:101B200097FC60683321903000F01DFD002814D030
:101B3000FEE7BDF80010A1F580510B390ED0B1F5CC
:101B4000007F0DD004250422006801A9FEF718FDCE
:101B500000B2042806D0FEE788E0ACE00C25F2E7EE
:101B60001825F0E79DF8060000F00F00082800D3C4
:101B7000FEE76068FF2344223321903000F0D6FC5A
:101B800000B1FEE79DF8060000F00F01BDF800006F
:101B900000F05EFC00B1FEE76068042D90F8AC1028
:101BA00001EB410100EB810001994069006801608F
:101BB00012D960682D1F2A4690F8AC1001EB410144
:101BC00000EB8101006849690968091DFEF7D8FC2E
:101BD00000B2854200D0FEE7BDF90400002831DDE7
:101BE00000F0030720F0030085B2042D11D36068D4
:101BF0002EB2324690F8AC1001EB410100EB8101AE
:101C0000006849694968FEF7BBFC00B2864200D013
:101C1000FEE7BFB16068042203A90068FEF7B0FCCC
:101C200000B2042800D0FEE760683A4690F8AC1095
:101C300001EB410100EB810003A9406940682844A1
:101C4000FEF7C0FA606890F8AC1001EB410100EBC0
:101C500081001030222100F086FC00B1FEE76068B0
:101C60003321903000F07FFC28B3FEE7D0F89C10C1
:101C7000C978C91C21F00305D0F8A01000682A46D5
:101C8000FEF77EFC00B2854200D0FEE76068D0F827
:101C9000A41081B14A8872B1D0F89C30BDF80220FE
:101CA000DB78D21A121F15B28D80002D04DCD0F81B
:101CB000A400002141804AE0D0F8A4205188A94224
:101CC00004DA01F0030721F0030604E025F0030124
:101CD00005F003078EB2042E0AD331B28846D168CC
:101CE00000684246FEF74CFC00B2804500D0FEE79B
:101CF000A7B16068042203A90068FEF741FC00B2A6
:101D0000042800D0FEE760683A4603A9D0F8A40092
:101D1000C0683044FEF756FA2D1F2DB26068D0F827
:101D2000A4004088A84212DA20F00300281A85B2E5
:101D30000BE06068042203A90068FEF721FC00B2F2
:101D4000042800D0FEE72D1FADB2002DF1D19DF883
:101D500008504DB160682A4669460068FEF710FCDD
:101D600000B2854200D0FEE7FEF710FB04B0002071
:101D7000BDE8F0816C0200202049002070B50025EC
:101D8000264C32E090F8971090F89820914224D099
:101D900040F8A85FFF2185600173FFF737FE00B1AF
:101DA000FEE7606810F8981F491C0170017FA0F1E0
:101DB0009800012902D0022917D108E080F892503A
:101DC000012311222221913000F0B0FB0DE0FFF73A
:101DD0002BFB6068C0F8A85007E0FF2311222221E6
:101DE000913000F0A3FB00B1FEE7606890F892101C
:101DF0000129C7D03321001D00F0B5FB00B1FEE77B
:101E0000606810F8971F4078814204D00022114684
:101E1000034800F0ABFB002070BD00006C02002006
:101E2000251E000870B5224CFF2344226068332130
:101E3000001D00F07BFB00B1FEE76068002500F1AB
:101E400094004FF001014561C56180F82010C17810
:101E50000279A0F19400914206D13321001D00F0D7
:101E600082FB002823D0FEE7FFF7D0FD00B1FEE79C
:101E7000606810F8981F491C0170017FA0F198005C
:101E800061B1022902D0032908D0FEE7D0F8A800EA
:101E900060B1FFF7C9FA6068C0F8A85060683321E4
:101EA000001D00F060FB002801D0FEE7FEE770BDDA
:101EB0006C02002070B53D4C6068D0F89C1079B180
:101EC0000A88C2808978D0F8A42001F1030142B1C8
:101ED00021F003031188C91C21F00301194402E019
:101EE000FEE721F0030189B2018190F89B30012BBC
:101EF00002D1528811440181042200682C49FEF766
:101F000073FB00B2042800D0FEE76168042251F898
:101F1000060BFEF769FB00B2042800D0FEE76068FC
:101F2000D0F8A01071B1D0F89C20927852B1D21C98
:101F300022F0030500682A46FEF756FB00B28542F0
:101F400000D0FEE7606890F89B10012912D10021B3
:101F500080F89B10D0F8A41000684A88C968D21C89
:101F600022F0030215B22A46FEF73EFB00B285427C
:101F700000D0FEE76068D0F8A410A1B10A8892B141
:101F8000D0F89C309B789B0700D0FEE7D21C22F053
:101F9000030214B2896800682246FEF725FB00B2EE
:101FA000844200D0FEE7002070BD00006C020020DB
:101FB0000856000810B5028841F63004131B90B093
:101FC00000F10801A2423DD008DCB2F5C15F0FD09C
:101FD00013F10E0213D00C2A09D113E0052B0BD0FC
:101FE000B3F5F87F04D0A3F50073053B04D0FEE7FA
:101FF00000F0C2FB10B010BD00F0F8FBFAE700F0F3
:102000006BFCF7E7012340241C30009308938DF804
:1020100024400A9008780A1D8DF80400029208A94D
:1020200068460D92FEF7C0FE9DF824008DF82C0046
:102030009DF804008DF82D000A980C900BA801F073
:102040000BFDD7E7022200920A78081D8DF80420C4
:1020500002900A7810444A788DF80C2004904A784F
:1020600089781044069000208DF81410089008A973
:102070006846FEF799FEBDE704480021406800F875
:10208000881F0A2141708170704700006C02002097
:1020900010B50D4C782160681030FEF7ACF862681E
:1020A0000020082382F88800411C00EB400002EB6E
:1020B000800081764376C8B20A28F5D302F18902FE
:1020C0000A205070107010BD6C0200202DE9F04104
:1020D000364F0646FF23786844223321903000F0C3
:1020E00025FA00B1FEE7786806EB4605B84690F899
:1020F000894000EB850124E004EB440200EB8202FE
:102100000F7E137EBB421BD1537E03F00F03082BBF
:1021100006D04F7E07F00F07082F11D2BB420FD118
:1021200021464746893000F035FA796804EB4400CF
:1021300001EB80001030222100F015FA18B1FEE703
:10214000947E0A2CD8D3D8F80400444600EB8501CD
:102150004A7E02F00F030122082B06D2D0F88C70C1
:102160009A409743C0F88C7006E00F7ED0F88C3010
:10217000BA409343C0F88C3000224A610A760822A4
:102180004A7631468A3000F005FA606800EB850235
:1021900090F88810917680F888603321903000F0B4
:1021A000E2F9002800D0FEE7BDE8F0816C020020D3
:1021B0002DE9F05F4A4C05468B46606800260422F4
:1021C00000684849FEF710FA00B2042800D0FEE784
:1021D0006068042229460068FEF7D2F9DFF808910A
:1021E00000B2424FA9F1020A042816D0FEE700BF50
:1021F000B6F5FA6F00D3FEE7B00709D16068042294
:10220000291D0068FEF7BCF900B2042800D0FEE7E3
:10221000284600F08FF806F101062868410700EA19
:10222000070009D5616891F8961001F0030141EAB1
:1022300009018842DCD101E05045D9D116F00306EE
:102240000FD06868286030B28046C6F1040041199A
:10225000606842460068FEF793F901B2884514D0E1
:10226000FEE76068042229460068FEF789F900B29B
:1022700004280AD0FEE76068042229460068FEF7B9
:102280007FF900B2042800D0FEE72868410700EA81
:10229000070009D5616891F8961001F0030141EA41
:1022A00009018842E7D001E05045E4D0606804228B
:1022B00090F89610491C80F896100068291DFEF7CA
:1022C0005FF900B2042800D0FEE716B1C6F10400A1
:1022D00000E000208BF800000020BDE8F09F000027
:1022E0006C020020105600083C5CCD2B7F7FFF7FE6
:1022F00010B5FEF709F80D48406800F192004179E9
:1023000001F10101417110F89219012906D0002252
:10231000BDE810401146064800F028B9222191304E
:1023200000F021F9002800D0FEE710BD6C0200206B
:10233000251E00080021421852784254491CC9B297
:102340000729F8D30021C171704700002DE9F0473B
:102350003E4E81460C4670680A27FF2344223321F3
:10236000903000F0E3F800B1FEE7706890F8885014
:102370000A2D14D205EB450700EB87018A7E0A2A55
:1023800000D30A22B0464FF0010A80F888200AFAEA
:1023900004F681F81890082C37D24C762FE03321C0
:1023A000903000F0E0F800B1FEE73846BDE8F08775
:1023B000D8F8040000EB870290F88910917680F835
:1023C00089503321903000F0CEF800B1FEE7D8F804
:1023D0000400FF2300EB870010301122222100F0BF
:1023E000A5F800B1FEE7D8F80400FF23442233210A
:1023F000903000F09BF800B1FEE7082C05D2D8F829
:102400000400D0F88C003042D2D1D8F804000AFA87
:1024100009F2D0F88C10114201D0082CC8D0082C39
:1024200001D2314300E01143C0F88C1000EB870269
:1024300090F88A10917680F88A503321903000F01D
:1024400092F800B1FEE72846B0E700006C020020D9
:10245000F0B5234A234F536893F88A202BE000BF3E
:1024600002EB420403EB8404657E2E0601D520F4C2
:102470000070267E0F2E0FD18D420DD1A0F5805C0D
:10248000BCF10A0C05D0BCF1010C02D0BCF5007CFB
:1024900002D183F8AC2020E007EBC60636F83E6C8C
:1024A000864207D105F00F058D4201D1082907D3D7
:1024B000082D05D0A27E0A2AD2D36FF00200F0BD0B
:1024C00002EB420003EB800003F1AC03007E07EB5C
:1024D000C00050F83C0C58601A704FF00000F0BD7E
:1024E0006C020020145600082DE9F04100240D4F25
:1024F000DFF834804FEA040607EBC405296851B1C0
:10250000D8F8000010F8972F4078824201D00020C0
:1025100088472E606E60641C24B2052CECDB002022
:10252000BDE8F081C8490020700200202DE9F0418B
:1025300005460E4617461C460DE02878B04204D1E9
:102540002F7054B10020BDE8F081FF2C08D0641E2C
:10255000E4B2FFF7C9FF002CEFD14FF0FF30F2E7F4
:10256000FFF7C2FFE9E701700020704730B5084C63
:10257000002200BF04EBC2031D682DB1521C12B231
:10258000052AF7DB002030BDC3E90001FAE70000AF
:10259000C849002030B5144B02785B6802EB420456
:1025A00003EB8404A47E0A2C0AD00F4D01EB4104F6
:1025B0008A426D6805EB840413D1A17E017030BDA1
:1025C0000A21FBE702EB420003EB8000807E884299
:1025D00006D102EB420103EB8101A07E887630BD7B
:1025E00002460A2AEED330BD6C020020014A02499D
:1025F00000F013B8953200087802002002E008C805
:10260000121F08C1002AFAD170477047002001E06C
:1026100001C1121F002AFBD170472DE9F041044689
:102620000F461646002503E03946B0476D1C641C72
:1026300020780028F8D12846BDE8F081B0F1443F69
:1026400019D009DCB0F1113F0ED0B0F1223F0DD00E
:10265000B0F1333F06D10CE0B0F1553F0ED0B0F1F0
:10266000663F0DD000B27047002070474FF0FF303A
:102670007047022070476FF00100704703207047D9
:102680006FF002007047000070B51B4C0830054623
:102690002068FF23442233219030FFF747FF00B129
:1026A000FEE7A87800F00F00082800D9FEE72068B0
:1026B00090F8AC1001EB410100EB81002968406902
:1026C000016069684160A9688160206890F8AC1079
:1026D00001EB410100EB810010302221FFF743FFA5
:1026E00000B1FEE7206833219030FFF73CFF00285F
:1026F00000D0FEE770BD00007002002070B51D4DD7
:10270000083004462868FF23442233219030FFF725
:102710000DFF00B1FEE7A07800F00F01082900D9F5
:10272000FEE7296891F8AC2002EB420201EB82013E
:10273000496988702868218890F8AC2002EB420231
:1027400000EB820040690180286890F8AC1001EB32
:10275000410100EB810010302221FFF704FF00B19E
:10276000FEE7286833219030FFF7FDFE002800D0F7
:10277000FEE770BD7002002070B51B4D08300446A6
:102780002868FF23442233219030FFF7CFFE00B1A9
:10279000FEE7286890F8AC1001EB410100EB8100E6
:1027A000417E4069090604D514222146FDF70AFD41
:1027B00003E02168016061684160286890F8AC100E
:1027C00001EB410100EB810010302221FFF7CBFE2D
:1027D00000B1FEE7286833219030FFF7C4FE0028DF
:1027E00000D0FEE770BD00007002002070B5184CEC
:1027F00000F108000146206890F8AC2002EB42028C
:1028000000EB8200427E120621D440694A888B6820
:1028100045682B6085684B682B600B880380C36814
:102820001D88AA4200D92A461A8000690C31FDF79A
:10283000C9FC206890F8AC1001EB410100EB81006D
:1028400010302221FFF78FFE002800D0FEE770BD78
:102850007002002070B51F4C083005462068FF2329
:10286000442233219030FFF761FE00B1FEE720687B
:10287000C16831B12868FFF7E1FE2168C96888475F
:1028800015E090F8AC1001EB410100EB81002968E4
:1028900040690160206890F8AC1001EB410100EB49
:1028A000810010302221FFF75EFE00B1FEE72068B4
:1028B00033219030FFF757FE00B1FEE72068C16872
:1028C000002905D090F8AC00BDE87040FFF7FEBBD2
:1028D00070BD00007002002030B51D4B0830054669
:1028E000186885B040B169462846FDF757FD19685C
:1028F0006846884705B030BD164CFF234422206847
:1029000033219030FFF712FE00B1FEE7206890F807
:10291000AC1001EB410100EB8100406980B1142251
:102920002946FDF74FFC206890F8AC1001EB4101FF
:1029300000EB810010302221FFF715FE00B1FEE709
:10294000206833219030FFF70EFE0028D2D0FEE73A
:10295000740200207002002070B5174C0830054644
:102960002068FF23442233219030FFF7DFFD00B1C0
:10297000FEE7206890F8AC1001EB410100EB81000C
:1029800029684069016069684160206890F8AC106E
:1029900001EB410100EB810010302221FFF7E3FD44
:1029A00000B1FEE7206833219030FFF7DCFD0028FE
:1029B00000D0FEE770BD00007002002070B5164C1C
:1029C000083005462068FF23442233219030FFF76A
:1029D000ADFD00B1FEE7206890F8AC1001EB4101BD
:1029E00000EB8100296840690160206890F8AC1014
:1029F00001EB410100EB810010302221FFF7B3FD14
:102A000000B1FEE7206833219030FFF7ACFD0028CD
:102A100000D0FEE770BD0000700200200148007881
:102A200070470000840100200148006801F06EBD7D
:102A30009401002010B58EB020216846FDF7DBFB25
:102A4000142109A8FDF7D7FB1B4C00200890216832
:102A5000022321F00041C4E900104FF47A71009183
:102A60001421ADF8041040F6B831ADF8061003217A
:102A7000CDE90210A068049008AA0D210FA000F073
:102A8000B1FE002812DB08980490104B09AA02211D
:102A9000684600F059FF002808DB01E0FFF724FD3D
:102AA00020680028FADA606810B100200EB010BD6E
:102AB0006FF4FA60FAE70000140100207777772EB0
:102AC00062616964752E636F6D000000510E00082D
:102AD00010B58EB020216846FDF78DFB142108A8A3
:102AE000FDF789FB154C4FF47A71154B206808AA45
:102AF00020F0004020600020606000911421ADF8BB
:102B0000041040F6B831ADF806100321CDE90210EB
:102B1000A06804900221684600F016FF002809DB37
:102B200002E000BFFFF7E0FC20680028FADA6068E6
:102B300010B100200EB010BD0248FBE714010020C8
:102B4000510E000830F8FFFF30B595B02C2101A8D8
:102B5000FDF751FB14210CA8FDF74DFB00240120CB
:102B60008DF850008DF844408DF848408DF84C4069
:102B700022462146204600F0B7FF424D00281BDBCD
:102B80001CD0022802D004E0FFF7AEFC2868400702
:102B9000FAD5002001F09EF900280DDBFF2001F09E
:102BA00005F8002808DB00221146104600F09CFFC3
:102BB000002801DB02D0344815B030BD0C208DF860
:102BC00044002C208DF8480001AB12AA11A9012065
:102BD00000F0D0FD0028EFDB00231A461121102061
:102BE00001F012F90028E7DBFF2001F029F90028A5
:102BF000E2DB01F005F918B105E000BFFFF774FC56
:102C00002868C007FAD1012214AB1146042000F055
:102C10004BFF0028D0DB002321468DF844401A46A4
:102C2000202001F0F1F80028C6DB01228DF84C408D
:102C300013AB0A21104601F02DF90028BCDB00235C
:102C40001A461946302001F0DFF80028B4DB0021D5
:102C5000084600F06FFE0028AEDBFF2208210CA81A
:102C6000FDF7C2FA14220CA9012001F0F9F800289E
:102C7000A2DBFF2000F09AFF00289DDB00F01CFB88
:102C80009AE70000140100202EF8FFFF10B507A0FE
:102C9000FFF7ACFC07A0FFF7A9FC14A0FFF7A6FC08
:102CA000BDE810401348FFF7A1BC00000A0D0A0D53
:102CB000000000002047657474696E6720737461BA
:102CC0007274656420776974682073746174696FC5
:102CD0006E206170706C69636174696F6E202D2065
:102CE00056657273696F6E2000000000312E312E20
:102CF00030000000545300082DE9F0410D461646FF
:102D00001F460024DDF8188001F0A9FA0B490A20BB
:102D1000C8703B4607223146284601F045FE01288F
:102D200006D1414644F6206001F028FF012800D07A
:102D3000032401F0A3FA2046BDE8F0815C020020E4
:102D40002DE9F041064688461746002501F087FA2E
:102D50000C4CA088032804D3A188A06800F031FCA3
:102D600028B1052501F08AFA2846BDE8F081A0685F
:102D700010F8011B3170A188891E3980C8F8000045
:102D8000F0E700005C0200202DE9F04107460E4606
:102D90009046002501F063FA104C607828B10525B3
:102DA00001F06CFA2846BDE8F081701E0126E06053
:102DB000E6800770E28802EB0801E180E18800F01C
:102DC00000FC0146E088A2680244401CE0801170CB
:102DD00026700121002001F097FAE1E75C02002053
:102DE00010B501F03CFA0021012001F08DFA0549EF
:102DF0000020487001F042FABDE81040002001F0C8
:102E0000ABBD00005C02002010B501F028FA0021E3
:102E1000084601F079FA01F03DFBBDE8104001F0F1
:102E20002DBA0000064810B541780024012902D0CF
:102E30000624204610BD006A0028FAD08047F8E733
:102E40009801002010B5064C607818B1012805D013
:102E5000062010BDA069804701206070002010BDD1
:102E60009801002070B5064D00246878012802D032
:102E70000624204670BD6869804700206870F8E726
:102E80009801002070B5064C0D4606492288401C6A
:102E9000FDF798F92088401C2880002070BD0000B4
:102EA0005802002044480020F8B5054608001146A5
:102EB0001A46DDE906C307D0F72805D81F4C204E77
:102EC000E0701DB1012D17D0022632E01D4F676161
:102ED0001D4FA7611D4F27611D4FC4E907761D4E89
:102EE00066621D4EA6621D4EE6621D4E266300936D
:102EF000634600F0A9F814E01A4F67611A4FA76102
:102F00001A4F27611A4FC4E907761A4E66621A4EA5
:102F1000A6621A4EE6621A4E266300936346FFF7D6
:102F2000EBFE060005D101F007FD20B12570012060
:102F300060703046F8BD0326FBE7000098010020D2
:102F40004D4200085531000875310008E93000088D
:102F50009D3000084D450008154C00089D4C0008A8
:102F6000754C0008E12D0008092E0008892D000885
:102F7000412D00083D4200087947000875480008C7
:102F800055480008F8B52F4C0025607808B1062098
:102F9000F8BD684601F0C0FC012850D19DF8000042
:102FA00007284CD2DFE800F04B04133A42474800B0
:102FB000244AE3690832111D101F984705003ED1CD
:102FC0002079E178884200D038BB022023E0E6680F
:102FD00001201C4B32786271A0710020343302F062
:102FE000800700BF13F8301079B1914201D0B94287
:102FF00008D103EBC00013494268083130469047BE
:10300000A07102E0401C1028ECDB207928B1A079E7
:1030100000B10925062001F09FFC10E0D4E903135C
:103020002289E0789847050009D1F4E7FFF7FCFC16
:1030300028B90520EFE70725022001F0F9FA284614
:10304000F8BD0000980100202DE9F0410E4615461C
:103050001F460024DDF8188001F001F93B460822E4
:103060002946304601F0A0FC01280ED1B5F5964F57
:1030700001D9232003E008496800B1FBF0F0414684
:1030800080B201F07BFD012800D0032401F0F6F8A6
:103090002046BDE8F0810000A07F17002DE9F04137
:1030A000064688461746002501F0D9F80C4CA08842
:1030B000042804D3A1880B4801F064F828B1052541
:1030C00001F0DCF82846BDE8F08106480078307051
:1030D000A088C01E38800348401CC8F80000EFE7F5
:1030E0004C020020444700202DE9F04107460E46DF
:1030F0009046002501F0B3F8144C6078012806D002
:103100005FF0050501F0BAF82846BDE8F081701EB1
:103110000126A06066800770628802EB080161806A
:10312000618801F02FF86188094A5318491C6180B1
:103130001870010A60880244401C6080117026707B
:103140000121002001F0E0F8DCE700004C02002043
:103150004447002010B501F082F80549012048706D
:10316000002101F0D1F8BDE8104001F087B800005F
:103170004C02002010B501F072F80021084601F061
:10318000C3F801F087F9BDE8104001F077B80020DE
:1031900070470988FD2901D903207047407870479E
:1031A00070B509880025FD290BD842784AB10B4932
:1031B0000988891E8A4204D1094B1C680CB1002180
:1031C00006E0032070BD4618B6786654491CC9B2A3
:1031D0009142F8D300201860284670BDA00100205D
:1031E0007801002070B509880024FD290CD84278A8
:1031F00052B10E490988891E8A4205D10C4D6B686F
:1032000013B1801C002109E0032070BD00EB4106D2
:10321000368876BA23F81160491CC9B2B1EB520F57
:10322000F4D300206860204670BD0000A00100209B
:10323000780100201FB500200FA1CDE902100A215E
:1032400001908DF80C1002218DF8041002460090B8
:1032500001AB0B210BA000F00DFD0D4C002809DB8C
:1032600002E000BFFFF740F92068C107FAD040072D
:10327000F8D5002004B010BD333737373430323042
:103280003231000057697469756D5F54657374005D
:103290001401002070B5074D0446C1B22868FEF73E
:1032A000B3F840212868FEF713F80028F9D020462B
:1032B00070BD0000740100200348002101604160DE
:1032C0008160084670470000140100201FB500F01F
:1032D000DDF8FDF791FA00F00DFE4FF4FA700024CE
:1032E000CDE900404FF4E13302220A212046FFF7E6
:1032F000DBFD0320CDE900044FF480750294002328
:103300002A4609A10B48039401F09EFE0094019403
:10331000029400232A4608A10A48039401F094FE6F
:1033200001F0D8F9FEE700004D42506F6C6C54611B
:10333000736B000059450008506F6C6C5461736BDF
:10334000000000007545000870B50B4C054620686C
:103350004560E0682168854201F1040104D2606B98
:10336000BDE8704000F046BF206B00F043FFA06A4C
:10337000854200D2A56270BD2001002070B5124EBA
:10338000124C1DE001F0C8F93068B8B101F092FFAD
:1033900001F0F6F8F068C568281D00F00BFFA06882
:1033A000401EA0606068401E606001F0F7F8286B66
:1033B00001F0FEF8284601F0FBF801E001F07AFF89
:1033C00060680028DED170BD1C03002020010020B1
:1033D00030B40B46016800290DD0C468026C144457
:1033E000C4604568AC4201D2214600E0C16030BCF7
:1033F0001846FCF7E7BE30BC704770B51546026C46
:10340000044612B37DB1E068FCF7DCFEE168206C95
:10341000091AE1602268914202D26168081AE060EC
:10342000022D0DD011E0A068FCF7CCFE216CA06845
:103430000844A0606168884207D32068A06004E067
:10344000A06B10B1A06B401EA063A06B401CA063DA
:1034500070BD0000044C00BFFFF790FF20680128FA
:10346000FAD901F0CDF8F7E77C0200200648016B9D
:10347000096829B1016BC968C968496881627047E8
:103480004FF0FF31FAE700002001002038B5FDF7CA
:103490000BFB4FF480342046FDF79EFB3120FDF7F7
:1034A00071FB0028FAD02349022008600020FDF7B4
:1034B00089FB0020FDF7B4FB4FF48060FDF7A6FB0D
:1034C0004FF4E0112046FDF7BBFB0120FDF7B2FBF6
:1034D0003920FDF757FB0028FAD00220FDF7BAFB90
:1034E000FDF768FB0828FBD101217D20FDF7C4FA18
:1034F00001218803FDF7A8FA00214FF00060FDF7D5
:1035000099FA4FF44070FDF78BFA0420FDF744FD63
:103510000020094C0346024600904FF4E13120465A
:10352000FDF71EF92046FDF7C1F8BDE83840FCF76D
:103530008BBF00000020024000380140FCF722FE53
:10354000FEE770B5044601F01BF804F124000546BF
:103550000AE0606A58B1284601F07EFE08B101F029
:103560008DF8A06C401EA064A06C0028F1DC4FF028
:10357000FF36A66401F012F801F002F804F110051C
:103580000AE0206958B1284601F066FE08B101F052
:1035900075F8606C401E6064606C0028F1DC666445
:1035A000BDE8704000F0FABF092801D8303004E0CF
:1035B000A0F10A01052902D83730C0B27047302087
:1035C0007047002203E010F8013B1A44D2B20B000E
:1035D000A1F1010189B2F6D15042C0B2704700009A
:1035E00070B50024012000F035FF1D4D40F2255636
:1035F00031462846FDF773FE48B131462846FDF7AF
:1036000057FE00F06FFF174800688047044640F2FD
:10361000266631462846FDF762FE38B13146284617
:10362000FDF746FE104800688047044640F22776C2
:1036300031462846FDF753FE40B131462846FDF796
:1036400037FE002231462846FDF768FE002000F0D4
:1036500001FF002C03D005494FF08050086070BD79
:1036600000440040C0010020C401002004ED00E03F
:1036700010B5012000F0EEFE01218C072046FDF779
:1036800095FD30B105480068804701212046FDF7CF
:10369000C8FCBDE81040002000F0DCBEC8010020DE
:1036A0002DE9F0410446002501F036F8274901F1E3
:1036B0000803486801F1100268B92548002720F086
:1036C0000700C3E9000744F2F836C2E90076C0E912
:1036D00000260120486044F2F73094B308346607AE
:1036E00004D004F00706C6F108063444661E86427C
:1036F00027D2164E1868083601E006461846436879
:10370000A34202D20368002BF7D1904219D035684A
:103710000268326042680835121B102A0DD903195D
:103720005A600A4A446008325E6800E02246146823
:103730006768B742FAD31C60136040680A68101AC1
:10374000086001F0B7FD2846BDE8F081580100206F
:103750004C03002010B5031F4FF08074A0F120002F
:103760001C6081610249416140F8202910BD0000C0
:103770003D35000830B50D46117887B01446B1B11B
:103780004DB30021ADF808102278CDE90413ADF84F
:103790000A20ADF80C10ADF802002878ADF804004E
:1037A00002AA69460D48FEF727F818B1FEE70C4853
:1037B00007B030BDBDF804002870BDF80A00BDF8A0
:1037C0000C10884203D220706FF4FA60F0E7217089
:1037D000BDF90000ECE74FF0FF30E9E7FC550008C9
:1037E0002EF8FFFF2DE9F0438FB091460022CDE97E
:1037F0000802ADF81810ADF800101D46ADF81A20FB
:103800008DF8023008210B20FEF7A0FDC6B20A2E6B
:1038100009D0264CFF234422206833219030FEF744
:1038200085FE20B1FEE722480FB0BDE8F083206896
:1038300006EB460700EB87010DF10408C1F8148080
:10384000032D03D14A7E42F080024A763321903024
:10385000FEF789FE00B1FEE706AA69461548FDF7A6
:10386000CBFF00B1FEE7BDF80000C0B92068FF2320
:1038700000EB8700103011222221FEF757FE00B125
:10388000FEE7BDF90400ADF8000040B90422022DA6
:1038900000D0102208F104014846FCF793FC3046A2
:1038A000FEF714FCBDF90000BEE700007002002026
:1038B00030F8FFFF605600082DE9F0411D46C8B002
:1038C0000C464EAB0746904607CB8DF80041ADF84D
:1038D00002012E1942928DF801514191FE2E04D918
:1038E0004FF0FF3048B0BDE8F0814FF4807168467A
:1038F000FCF781FC224639466846FCF763FC6F46BC
:1039000025B138192A464146FCF75CFCADF80C613C
:103910000020ADF80E01CDE9457043AA40A9044846
:10392000FDF76AFF00B1FEE7BDF90001DAE700002C
:10393000585600080EB500230093CDE901331A460E
:10394000FFF7BAFF0EBD00002DE9F04190463E4A58
:1039500090B01D46526A0E9202690A24E2B1022911
:1039600021D049F62161ADF8381000F114010BAFF8
:103970004AC90A924AC7016806918188ADF81C10AD
:10398000C188ADF81E1081680891C0682F4F304E75
:10399000099075B13D602DE049F62340FDF7D4FE56
:1039A00010B0BDE8F08149F62141ADF838100A9217
:1039B000E1E708210D20FEF7C9FCC4B20A2C08D0AB
:1039C0003068FF23442233219030FEF7AFFD10B161
:1039D000FEE72048E4E7306804EB440200EB820293
:1039E0000021C2F814D0396033219030FEF7BBFDBE
:1039F00000B1FEE7002206A90EA8FDF7FDFE00B10A
:103A0000FEE7BDF8180020B180B2012801D0ADB1A9
:103A100017E0B5B9316804EB440001EB80001030C9
:103A2000FF2311222221FEF781FD00B1FEE7BDF840
:103A3000000018B941466846FCF7B0FC2046FEF786
:103A400045FBBDF91800ABE74C5600087402002096
:103A50007002002030F8FFFF00B501788BB0C91C60
:103A600021F00301ADF818100022ADF81A204168CA
:103A7000CDE9081201788DF8001041788DF8011019
:103A8000427881680DF10200FCF79CFB06AA6946AA
:103A90000448FDF7E5FE00B1FEE7BDF800000BB0FD
:103AA00000BD00006856000810B586B0D41C24F094
:103AB0000304ADF808400024CDE90434ADF8062035
:103AC000ADF80200ADF80410ADF80A4002AA69464C
:103AD0000448FDF791FE00B1FEE7BDF9000006B015
:103AE00010BD000074560008F8B505460F4616468E
:103AF000FCF722FCFDF712FF294C8DB12068056010
:103B000008210E20FEF722FC05460A280FD0206867
:103B1000FF23442233219030FEF708FD48B1FEE731
:103B200000213846FCF722FD21680860E8E71D48BF
:103B3000F8BD206805EB450500EB85023321C2F88E
:103B400014D09030FEF70FFD00B1FEE7206800684A
:103B500000280ADBFCF7E4FB00211348FCF7EDFB2F
:103B60003EB12068C660FCF7E1FB2068006800B247
:103B7000F8BDFCF7DBFB2068FF2300EB850010306D
:103B800011222221FEF7D2FC00B1FEE7206890F856
:103B9000AC00FEF79BFA0098FEF750FDF8BD000060
:103BA0007002002030F8FFFFF12200082DE9FC41EF
:103BB0002D4C002588B1ADF8000008210E20FEF73D
:103BC000C5FB06460A2814D02068FF23442233216F
:103BD0009030FEF7ABFC78B1FEE700210846FCF719
:103BE000ACFBFCF79DFB20680068FCF74DFC05B2C0
:103BF00035E01E48BDE8FC81206806EB460700EB77
:103C0000870201A9516133219030FEF7ACFC00B16D
:103C1000FEE7002269461648FDF7EEFD00B1FEE71B
:103C2000BDF8000070B92068FF2300EB870010305A
:103C300011222221FEF77AFC00B1FEE7BDF9045003
:103C4000ADF80050F0B2FEF741FA00210846FCF74B
:103C500074FBFCF765FB20680068FCF715FCFDF7BA
:103C60002DFE2846C6E700007002002030F8FFFF56
:103C7000F05500082DE9F047B2B081460E46904657
:103C80001C46B02168463A9DFCF7B5FA00272C97F0
:103C900004208DF8B2708DF8B300202E00DDFEE711
:103CA000DFF858A18DF80160002D61D048F6824000
:103CB000ADF8B000494604A832468146FCF782FAC6
:103CC0001036F6B28DF8B260C4B1207AB0B1207867
:103CD0008DF80000207A3F2860D88DF808006168D0
:103CE00059B19DF80130227A03EB0900FCF76AFA1A
:103CF000207A30448DF8B20002E0FEE78DF80870BB
:103D000028690390687B8DF80B002879202845D816
:103D10008DF809002A797AB19DF801009DF8081004
:103D2000014401EB09002968FCF74CFA9DF8B20048
:103D3000297908448DF8B200287B20282ED88DF8E8
:103D40000A002A7BE2B39DF801009DF808106B463B
:103D500008449DF80910194408441030A968FCF77C
:103D600031FA9DF8B200297B08448DF8B2002CE0AE
:103D700048F68040ADF8B0000DF1090032464946E2
:103D80000546FCF71FFA0936F0B28DF8B200C4B14F
:103D900021788DF80010217A3F2903D9504632B09E
:103DA000BDE8F0878DF80810217A08448DF8B2003C
:103DB000616829B19DF80100227A2844FCF702FAD3
:103DC00003E08DF808708DF800705FEA080006D0F7
:103DD0000168CDF802108088ADF8060003E0CDF848
:103DE0000270ADF80670002269462CA8FDF704FDAC
:103DF00000B1FEE7BDF90000D1E700002DF8FFFF9C
:103E000048F68140FDF7A0BC10B586B00024ADF89F
:103E10000430ADF80640CDE903248DF800008DF89C
:103E200002108DF8033001AA69460448FDF7E4FC4E
:103E300000B1FEE7BDF9000006B010BD7C560008D9
:103E400008B500228DF8000069460448FDF7D4FC4F
:103E500000B1FEE7BDF9000008BD0000885600086B
:103E600000B585B00391ADF8042000218DF8020063
:103E7000ADF806100491ADF8002001AA6946044887
:103E8000FDF7BAFC00B1FEE79DF8000005B000BDEB
:103E90009456000810B586B0D41C24F00304ADF885
:103EA00008400024CDE90434ADF80620ADF8020046
:103EB000ADF80410ADF80A4002AA69460448FDF7BF
:103EC0009BFC00B1FEE7BDF9000006B010BD00008C
:103ED000A456000808B500228DF800006946044881
:103EE000FDF78AFC00B1FEE7BDF9000008BD000047
:103EF000A056000810B5FFF7DFF900282CDBFCF70F
:103F0000C9F9FEF7C3FEFEF71FFE002807DA40F2EC
:103F1000D271091802D111A0FEF768FBFEE71DA0BF
:103F2000FEF764FB002211461046FFF7DDFD002876
:103F300003D023A0FEF75AFBFEE729A0FEF756FBAD
:103F4000FFF778F9002803DA2DA0FEF74FFBFEE714
:103F500036A0FEF74BFB002010BD00002046616933
:103F60006C656420746F20636F6E66696775726537
:103F7000207468652064657669636520696E2069D0
:103F800074732064656661756C7420737461746504
:103F9000200A0D00204465766963652069732063FB
:103FA0006F6E6669677572656420696E2064656608
:103FB00061756C74207374617465200A0D000000D3
:103FC000204661696C656420746F2073746172743B
:103FD0002074686520646576696365200A0D0000B9
:103FE000204465766963652073746172746564202A
:103FF00061732053544154494F4E200A0D00000074
:10400000204661696C656420746F20657374616219
:104010006C69736820636F6E6E656374696F6E2080
:10402000772F20616E204150200A0D0020436F6ED3
:104030006E656374696F6E2065737461626C697319
:1040400068656420772F20415020616E64204950BC
:10405000206973206163717569726564200A0D00BF
:1040600010B50DA0FEF7C2FA16A0FEF7BFFAFEF7D4
:104070002FFD002801DA17A009E01FA0FEF7B6FA0D
:10408000FEF7D8FC002801DA26A000E030A0BDE849
:104090001040FEF7ABBA00002043433331303020EC
:1040A000576C616E53746174696F6E4D6F646520F7
:1040B00074657374207374617274656421200A0DD1
:1040C000000000002050696E67696E672E2E2E2159
:1040D000200A0D002044657669636520636F756C66
:1040E000646E277420636F6E6E65637420746F2036
:1040F0004C414E200A0D000020446576696365201E
:104100007375636365737366756C6C7920636F6E2A
:104110006E656374656420746F204C414E2E200AD6
:104120000D0000002044657669636520636F756C3F
:10413000646E277420636F6E6E65637420746F20E5
:1041400074686520696E7465726E6574200A0D006E
:104150002044657669636520737563636573736670
:10416000756C6C7920636F6E6E6563746564207422
:104170006F2074686520696E7465726E65742E2098
:104180000A0D000070B50A4DFF231A4605F580762A
:1041900006E000BF10F8014B54402A5D5A40335DE1
:1041A0000C00A1F1010189B2F4D142EA032070BDF3
:1041B000F0530008D0E9013201699A60D0E9012387
:1041C0005A604A68824201D182684A6000220261D4
:1041D0000868401E0860704700F108014FF0FF3288
:1041E000C0E90112C1600161002101607047002136
:1041F0000161704730B50B685A1C02D000F108020B
:1042000002E0026904E02246546825689D42FAD91A
:1042100053684B6099608A60516008610168491C6D
:10422000016030BD42684A6093688B609368596052
:10423000916008610168491C016070470249896802
:10424000491C0160704700005C02002010B500F0BE
:1042500017F800F005F9BDE8104000F003B800F0D1
:104260008FB9000010B5044C2068002803D000F07E
:10427000D3F90020206010BD8001002000F08EB92D
:1042800070B51C4C2078FF2833D00021084600F080
:104290003BF82078184D00EB4000184955F83000E5
:1042A000884205D100214FF48040FCF7E5FB07E090
:1042B0001349884207D100214FF40030FCF7C4FBBA
:1042C0000021042009E00F49884208D100214FF461
:1042D0008020FCF7B9FB00210820FCF7CDFB2078FB
:1042E000002100EB400055F83000FCF7E7FFFF200D
:1042F000207070BD90010020A853000800380140D4
:1043000000440040004800402DE9F0414E4C0F466B
:104310004E4D217840F2255601EB4101002856D040
:1043200005EBC100818A11B1C068FCF743FB20781E
:10433000202100EB400055F83000FCF7B6FF207854
:10434000314600EB400055F83000FCF7B1FF207813
:10435000012200EB400055F830003146FCF7DEFF4B
:104360003800207840F2277600EB400005EBC000D3
:1043700040F22667818A3ED011B1C068FCF71CFB71
:104380002078314600EB400055F83000FCF790FFF4
:104390002078394600EB400055F83000FCF788FFE4
:1043A0002078002200EB4000314655F83000FCF741
:1043B000B5FF2078012200EB4000394655F8300067
:1043C000FCF7ACFF22480068BDE8F041004755F813
:1043D00031002021FCF769FF2078314600EB4000D6
:1043E00055F83000FCF764FF2078002200EB400015
:1043F00055F83000B1E711B1C068FCF7DBFA20785E
:10440000314600EB400055F83000FCF751FF2078B2
:10441000394600EB400055F83000FCF749FF2078A2
:10442000012200EB4000314655F83000FCF776FFE2
:104430002078394600EB4000002255F83000BDE8F6
:10444000F041FCF76BBF000090010020A85300086A
:10445000C401002001490870704700008401002059
:1044600010B54FF0804400212046FCF7DDFD01210E
:104470002046FCF7D3FD002201212046FCF7A1FED7
:1044800000210120FCF7E0FA0021BDE810400220E5
:10449000FCF7DABA10B501218C072046FCF7BEFD07
:1044A000002201212046FCF78CFE2046BDE810408A
:1044B0000021FCF7B9BD10B54FF080440021204623
:1044C000FCF78CFE01212046FCF7A8FD01221146D5
:1044D0002046FCF776FE2046BDE810400121FCF79F
:1044E000A3BD000010B5084CA06800280AD0617870
:1044F000012907D1002321781A46194600F0E4FC6F
:104500000020607010BD00008401002070B50E4CCA
:104510000546A06830B903220021012000F010FCFC
:10452000A06070B1607860B90120607000232A46F5
:104530001946A06800F025FC0021617008B1012037
:1045400070BD002070BD00008401002001490160A1
:104550007047000045470020FEF784FC38B1FEF7A5
:1045600071FCFEF75FFCFA2000F06EF8F4E7FEF74E
:1045700009FDFCE7FFF774FDFA2000F065F8F9E7A4
:1045800010B5FBF7FFFD04480168491CBFF34F8FCE
:10459000BFF36F8F016010BD7001002003490868F0
:1045A000401E086001D1FBF7F4BD70477001002088
:1045B00010B5002817D00838044600F0ADF80A48B6
:1045C000616800E01046026853688B42FAD32260AB
:1045D0000460054861680838026811440160BDE85C
:1045E000104000F067BE10BD600100204FF0E020D9
:1045F0000249416107210161704700003F19010034
:1046000004494FF080500860BFF34F8FBFF36F8FA6
:104610007047000004ED00E010B50446006808B1E2
:10462000FFF7C6FF2046BDE81040FFF7C1BF0000FE
:1046300010B50446FFF713FE02488470BDE8104031
:10464000FFF71CBE9801002010B502000FD000F04B
:1046500063F80948C16800688C18001DFFF7AAFDBF
:104660002046FEF771FE00F025FE002803D1BDE8CC
:104670001040FFF7C5BF10BD2001002001490120F7
:10468000C86170472001002070B50C4D0C462968A8
:104690001831FFF7AFFD2868001DFFF78BFD601C88
:1046A00005D0E8682044BDE87040FEF74DBE29689B
:1046B000BDE87040091D0248FFF7B4BD200100208D
:1046C0003003002002490A6A0260C96841607047ED
:1046D000200100201FB50024009401940294234679
:1046E000802209A10A48039400F0AEFC012809D1F8
:1046F000FBF748FD074801214161C460BDE81F4048
:1047000000F0F4BA1FBD000049444C450000000011
:1047100055340008200100200248C16A491CC162CA
:1047200070470000200100201148C16A11B1012129
:10473000C16170470021C1610E4901E0521E026152
:10474000026902EB820251F82220002A0269F5D0A8
:1047500002EB820201EB820101F108034A68526810
:104760004A609A4201D152684A60D168016070473C
:10477000200100207C020020F8B50027684600F0E8
:1047800001F9334C60780025012690B3012802D04E
:1047900002285AD139E0FFF78EFE9DF800003A2832
:1047A00007D00D2808D0A0F13001092907D8C8B2D8
:1047B0000DE0A570A58048E00220607045E0A0F102
:1047C0004101052902D83738C0B200E0FF20A178A6
:1047D00011B1012939D10DE0A188FF2905D8A2889E
:1047E000A16800018854A6702FE06570FFF752FEA3
:1047F0002BE021E0A288A16811440A7802430A70E4
:10480000A088401CA080A5701FE09DF80000E17802
:10481000884207D1FFF73EFE6570012000F09CF84A
:10482000074612E03A2801D065700EE0A570A58019
:104830006670FFF740FE08E09DF800003A2804D1BA
:10484000FFF739FEA580A57066703846F8BD0000F8
:104850005C020020064810B54178012901D00229E8
:1048600001D100214170FFF715FE002010BD0000AE
:104870005C02002070B5274C0026207835460528BC
:1048800046D2DFE800F041030A3136003A2000F05A
:1048900063F902202070A5703AE0E088F0B1A178B9
:1048A0001C48C06811B1012932D108E00078000924
:1048B000FEF77AFE00F050F90120A07028E00078A1
:1048C00000F00F00FEF770FE00F046F9E068401CB3
:1048D000E060A570E088401EE08019E00D2000F047
:1048E0003BF90320207013E0E07800F035F9042054
:1048F000F8E72570042000F02FF80646002101207B
:10490000FFF702FD257003E000210120FFF7FCFC0A
:10491000304670BD5C02002010B5014605480024F9
:1049200023463222006800F02CFA012800D101242D
:10493000204610BD8001002010B500240121224630
:10494000084600F0FDF90349086000B10124204643
:1049500010BD00008001002031B50124FEF75EF893
:10496000010007484FF000031A460068694602D06C
:1049700000F015FB01E000F0A7FA204638BD00006A
:104980008001002010B5044605480649007800EB78
:10499000400051F83000FCF733FD2070012010BDBD
:1049A00090010020A85300082DE9F04786B0054685
:1049B0008A469046994600276846FCF729FD6D1EF9
:1049C000022D20D85F4C2078FF281CD1012700261B
:1049D000B9F1000F18D0B9F1010F1CD0B9F1020FD5
:1049E0001CD00027B8F1070F1FD0B8F1080F1CD05A
:1049F0005FF000070C20CDF800A0ADF80C60ADF81A
:104A00000A00012F14D098E04FF40050ADF8086070
:104A1000ADF80600E6E74FF4C06001E04FF48060B7
:104A2000ADF80800ADF80660DCE7ADF80460E1E73A
:104A3000E8B22070444D00EB4000002155F83000F2
:104A4000FCF73CFC20784FF0030800EB400005EB3E
:104A5000C000418AADF810108DF8128018218DF831
:104A60001310806804A9FBF753FF207800EB400087
:104A700005EBC000018AADF8101004218DF8131069
:104A8000406804A9FBF744FF207800EB400005EBE9
:104A9000C000818AADF8101010218DF813108DF828
:104AA0001280C06804A9FBF733FF207800EB4000B8
:104AB00005EBC000818AC068FBF77CFF26208DF8DB
:104AC00014008DF8166001208DF815008DF8170080
:104AD00005A8FBF777FF20781C4900EB400055F84C
:104AE0003000884204D101218803FBF7C5FF06E0AE
:104AF0001749884206D101214804FBF7A5FF01218F
:104B0000042008E01349884207D101218804FBF7FB
:104B10009BFF01210820FBF7AFFF2078694600EBDF
:104B2000400055F83000FCF711FC2078012100EB23
:104B3000400055F83000FCF7C1FB06B03846BDE830
:104B4000F087000090010020A853000800380140C1
:104B500000440040004800400146064810B5007877
:104B6000054A00EB400052F83000FCF74DFC0120F4
:104B700010BD000090010020A85300082DE9FF415E
:104B80000F462249484344F62061B0FBF1F086B25B
:104B90004D062846FCF71DFB01210846FBF754FF94
:104BA00001210220FBF750FF2846FCF747FA0024BA
:104BB000C6B16846FCF762FB40F26710ADF8000032
:104BC000ADF80460ADF80640ADF8024069462846ED
:104BD000FCF706FB01212846FCF716FA00212846BF
:104BE000FCF755FB1C208DF80C008DF80E408DF85D
:104BF0000D4001208DF80F0003A8FBF7E3FE0448E9
:104C0000076004B00120BDE8F0810000400D030002
:104C10009401002038B500246846FFF7B3FE13491D
:104C2000487830B1124B012807D0022810D0032851
:104C300001D1FFF740FC204638BD002088809DF858
:104C400000008A881344521C8A80187002200BE0EE
:104C50008888FF2807D89DF8002088880344401CD6
:104C600088801A70E5E703204870E2E74C020020D4
:104C70004447002070B5084D0024687810B1022820
:104C800003D10120FFF768FE0446FFF703FC012073
:104C90006870204670BD00004C02002070B5124CB8
:104CA0000025207810B101281CD104E0002101204A
:104CB000FFF72AFB16E0608850B1A0680078FFF784
:104CC0004BFFA068401CA0606088401E608009E027
:104CD0000420FFF741FE054600210120FFF714FBE9
:104CE00000202070284670BD4C020020094810B5F5
:104CF000016841F47F010160016841F07F4101607A
:104D0000FFF774FC044900200860FBF70BFA002051
:104D100010BD000020ED00E07001002010B5FBF791
:104D200031FA00F03FFA18B104494FF080500860A2
:104D3000BDE810400020FBF72CBA000004ED00E0B5
:104D40002DE9F04105000F464FF0000616D04C202B
:104D5000FEF7A6FC040011D005FB07F0401CFEF78F
:104D60009FFC206038B1C4E90F570121204600F0B4
:104D70007BF8264602E02046FFF71AFC3046BDE8E5
:104D8000F0812DE9FF41002582B088461E46044689
:104D90002F46FFF7F5FBA06B10B341462046E568B0
:104DA000FEF716FB7EB1E560606A30B104F12400C5
:104DB00000F052FA08B1FFF723FCFFF7EFFB0120E8
:104DC00006B0BDE8F081A06B401EA06320690028FA
:104DD000F3D004F1100000F03FFA0128EBD0ECE72B
:104DE000049808B11DB106E0FFF7D8FB1DE0684646
:104DF000FFF768FC0125FFF7D1FBFFF78DFCFFF7FC
:104E0000BFFB606C401C00D16764A06C401C00D1EB
:104E1000A764FFF7C3FB04A9684600F0F1F830B1BE
:104E20002046FEF78EFB00F045FA0020C8E7FFF7AA
:104E3000A7FBA06B38B1FFF7B1FB2046FEF781FB63
:104E400000F038FAA5E7FFF7A9FB04F12400049964
:104E5000FFF71AFC2046FEF774FB00F02BFA00283F
:104E600097D1FFF7CDFB94E770B504460D46FFF7E9
:104E700087FBD4E90F12206801FB0200606000206C
:104E8000A0632068A0600146E06B401E00FB02109A
:104E9000E0604FF0FF306064A06404F110004DB199
:104EA000FFF79AF904F12400FFF796F9FFF776FB74
:104EB000012070BD21690029F8D000F0CDF901284A
:104EC000F4D1FFF79DFBF1E72DE9FF41002582B00A
:104ED00088461E4604462F46FFF752FBA06BE16B47
:104EE000884205D3022E03D00498B0B1C5B11BE0AF
:104EF000324641462046FEF780FA606A38B104F136
:104F0000240000F0A9F9012801D1FFF779FBFFF790
:104F100045FB012006B0BDE8F081FFF73FFB1DE037
:104F20006846FFF7CFFB0125FFF738FBFFF7F4FBDF
:104F3000FFF726FB606C401C00D16764A06C401C2E
:104F400000D1A764FFF72AFB04A9684600F058F8CF
:104F500030B12046FEF7F5FA00F0ACF90020D9E7B1
:104F6000FFF70EFBA06BE16B884210D1FFF716FB39
:104F700004F110000499FFF787FB2046FEF7E1FAE1
:104F800000F098F90028A7D1FFF73AFBA4E7FFF754
:104F900005FB2046FEF7D5FA00F08CF99CE72DE9D9
:104FA000F041884615461E460446FBF7EBF80746D7
:104FB000A06BE16B884208D3022E06D0002438464D
:104FC000FBF7E7F82046BDE8F0813246414620462F
:104FD000FEF713FAA06C401C04D0A06C401CA06427
:104FE0000124ECE7606A0028FAD004F1240000F004
:104FF00033F90028F4D0002DF2D001202860EFE72B
:1050000070B504460D46FFF7BBFA0E4AD168286812
:10501000431C0FD02368126A934202D062688A420E
:105020000AD96268891A814206D2401A286020464D
:10503000FFF748FB002400E00124FFF7AFFA204609
:1050400070BD0000200100202DE9FF5F8346DDE9EF
:105050000F948A46174644200E9EFEF721FB05005A
:105060004BD01CB9B800FEF71BFB04462C63F4B30D
:105070006FF0030000EB8700204420F0070080461B
:105080002C4651463746002023180A5C83F834200A
:105090000A5C12B1401C1028F6D3002084F84300AB
:1050A000052F00D30427281DE762FFF7A0F804F1BD
:1050B0001800FFF79CF8C7F105002461A061646245
:1050C00059464046039AFEF745FB2860B9F1000FA8
:1050D00001D0C9F80050FFF753FA304CA068401CCB
:1050E000A0602068DFF8B88050B1606900E001E09E
:1050F00078B334E02846FFF75BFA4FF0FF3548E01D
:105100002560A06801282AD15FF0000707EB87011E
:1051100008EB8100FFF760F87F1C052FF6D32048CD
:105120006430FFF759F81E487830FFF755F81C48EF
:105130008C30FFF751F81A48A030FFF74DF81848A7
:10514000B430FFF749F816486430206314306063C8
:1051500005E0FFE72068C06AB04200D82560606AB9
:10516000401C6062E86A2169884200D9206100EB36
:10517000800108EB8100291DFFF754F80125FFF796
:105180000DFA606928B12068C06AB04201D2FFF709
:1051900037FA04B02846BDE8F09F00002001002047
:1051A0007C0200202DE9F041294C0026E06A40B144
:1051B000A069401CA061E06900B101263046BDE84D
:1051C000F081E068401CE060E76847B9206B616BE4
:1051D00021636063206A401C2062FEF747F9A06AE1
:1051E000DFF87080874209D3206B006880B1206BA4
:1051F000C068C568686887420DD2A0622068C06A2E
:1052000000EB800158F821000128D4D90126D2E70B
:105210004FF0FF30F1E7281DFEF7CCFFA86A18B168
:1052200005F11800FEF7C6FFE86A2169884200D937
:10523000206100EB800108EB8100291DFEF7F2FFE1
:10524000E86A2168C96A8842CED30126CCE700000B
:10525000200100207C02002070B5C068C46804F101
:1052600018000646FEF7A6FF104DE86A10B1314659
:105270000F480EE0201DFEF79DFFE06A2969884275
:1052800000D928610A4900EB80008C3901EB8000CD
:10529000211DFEF7C7FFE06A2968C96A884202D962
:1052A0000120E86170BD002070BD000020010020D9
:1052B000080300202DE9F0470027FFF761F9234C90
:1052C000E06A401EE062E06AD0BBA1682048012687
:1052D000B1B3A0F18C098046D8F80010E1B1D8F83C
:1052E0000C00C56805F11800FEF764FF281DFEF7E5
:1052F00061FFE86A2169884200D9206100EB8001E2
:1053000009EB8100291DFEF78DFFE86A2168C96A53
:105310008842E1D3E661DFE7A06940B90AE000BF57
:10532000FFF740FF00B1E661A069401EA061A069DF
:105330000028F5D1E069012802D10127FFF760F9C3
:10534000FFF72CF93846BDE8F08700002001002067
:10535000080300200A0D2A2A2A2A2A2A2A2A2A2A67
:105360002A2A2A2A2A2A2A2A2A2A2A2A2A2A2A2A9D
:105370002A2A2A2A2A2A2A2A2A2A2A2A2A2A2A2A8D
:105380002A2A2A2A2A2A2A2A2A2A2A2A2A2A2A2A7D
:105390002A2A2A2A2A2A2A2A2A2A2A2A2A2A2A2A6D
:1053A0002A2A2A2A2A0A0D00003801400008014052
:1053B0000008014000080140000400020200000053
:1053C000004400400008014000080140000801407E
:1053D000080004000200000000480040000C0140EA
:1053E000000C01400010014000040008000400000F
:1053F00000C1814001C0804101C0804100C18140A5
:1054000001C0804100C1814000C1814001C0804194
:1054100001C0804100C1814000C1814001C0804184
:1054200000C1814001C0804101C0804100C1814074
:1054300001C0804100C1814000C1814001C0804164
:1054400000C1814001C0804101C0804100C1814054
:1054500000C1814001C0804101C0804100C1814044
:1054600001C0804100C1814000C1814001C0804134
:1054700001C0804100C1814000C1814001C0804124
:1054800000C1814001C0804101C0804100C1814014
:1054900000C1814001C0804101C0804100C1814004
:1054A00001C0804100C1814000C1814001C08041F4
:1054B00000C1814001C0804101C0804100C18140E4
:1054C00001C0804100C1814000C1814001C08041D4
:1054D00001C0804100C1814000C1814001C08041C4
:1054E00000C1814001C0804101C0804100C18140B4
:1054F00000C0C101C30302C2C60607C705C5C40474
:10550000CC0C0DCD0FCFCE0E0ACACB0BC90908C8E3
:10551000D81819D91BDBDA1A1EDEDF1FDD1D1CDCD3
:1055200014D4D515D71716D6D21213D311D1D01043
:10553000F03031F133F3F23236F6F737F53534F433
:105540003CFCFD3DFF3F3EFEFA3A3BFB39F9F838A3
:1055500028E8E929EB2B2AEAEE2E2FEF2DEDEC2C93
:10556000E42425E527E7E62622E2E323E12120E003
:10557000A06061A163A3A26266A6A767A56564A4F3
:105580006CACAD6DAF6F6EAEAA6A6BAB69A9A86863
:1055900078B8B979BB7B7ABABE7E7FBF7DBDBC7C53
:1055A000B47475B577B7B67672B2B373B17170B0C3
:1055B00050909151935352929656579755959454B3
:1055C0009C5C5D9D5F9F9E5E5A9A9B5B9959589823
:1055D000884849894B8B8A4A4E8E8F4F8D4D4C8C13
:1055E0004484854587474686824243834181804083
:1055F00073840404648408046584040866840808C9
:10560000B7840804FFEEDDBB21433412FFEEDDBB9F
:1056100065877856080003108926000809000610DF
:10562000FD2600080A000710592900080B00201861
:10563000792700080C003518ED2700080D00221806
:10564000D92800080E007300BD2900080A9C040434
:10565000619C0404719C0404349C0C04359C040477
:10566000209C04040B9C08042F9C1804279C080809
:10567000000020043284080433840808868C040463
:10568000878C0404848C04B4858C04048C8C0404FE
:105690006C8C50046D8C04046F8C0404B28C380440
:1056A000B48C0404B58C0804B68C0808AF8C004C8C
:1056B000D0560008000100207C01000034020008E0
:1056C000305700087C020020744B00000C260008B4
:1056D00045020406082D01020304040534060708E8
:1056E000091AFF01C10316F8431AAA01110C173851
:1056F00001404881023202321113852E330804130F
:10570000E5315B08030832101A8F085A06085A1749
:105710001832011AA1085A05185A0F08297B2918AE
:1057200032801A93080140134447021420000000FD
:04000005080000ED02
:00000001FF
